:0400000014EF00F009
:10000800FACFD8F9FBCFD9F9E9CFDAF90AEF6FF0CF
:10001800D8CFC8F9E8CFC9F9E0CFCAF926EF70F010
:1000280002EEE5F0FE0EF66E0F0EF76E10EE11F012
:1000380045EC00F000EE00F010EEFFF03EEC00F0B2
:1000480001EE00F011EEE5F03EEC00F003EE00F0FA
:1000580014EEC8F03EEC00F008EE00F010EED5F01B
:100068003EEC00F00EEE7EF010EE02F03EEC00F0FA
:1000780027EF60F0EE6AE550E150FCE1E250FAE16A
:1000880012000900F5CFEEFFE550E150FAE1E25029
:04009800F8E1120079
:100F000000010010000001001000005E01E803670E
:100F1000000074656D706572617475726568756DD9
:100F20006964697479003031323334353637383991
:100F30004142434445460054656C6C537469636B8D
:100F40004E65743A0065766572666C6F757269738A
:100F5000680073656C666C6561726E696E670066C9
:100F6000696E656F666673657400646973636F6E3E
:100F70006E65637400636F6465737769746368009A
:100F80006D616E646F6C796E0070726F746F636FF9
:100F90006C0054534E455452430061726374656350
:100FA000680025733A25733B00286E756C6C290028
:100FB0006F7265676F6E0073656E736F7200257375
:100FC0003A25583B005241584131006D6F64656CC1
:100FD00000636C61737300646174610073656E64B7
:100FE000002B523A0032383A0025733A00783130FB
:100FF000000D0A00255800530050005200009E9F2B
:10100000FE41FFFFF3FF80FFFFFEFFFFFFFE070033
:101010000D0E090109014A25E96E000E09010901B9
:101020004B21EA6EEF50090109014F6F080E0901CB
:1010300009014A25E96E000E090109014B21EA6EFA
:101040000901EECF66F90901EECF67F90901EECF8C
:1010500068F90901EECF69F9040E090109014A2571
:10106000E96E000E090109014B21EA6E0901EECF7C
:101070005AF90901EECF5BF90901EECF5CF90901DC
:10108000EECF5DF900018591000185930001859502
:101090000B000E000001000185B901D001D01BD06A
:1010A0000FEC79F0740E09010901A125000100017E
:1010B0007C6F350E09010901A22100017D6F060E2A
:1010C00009010901A32100017E6F000E0901090138
:1010D000A42100017F6F5BD1090109014FA501D057
:1010E00001D004D0C2EC67F097EF16F009010901B6
:1010F0004FA901D001D01ED066C9AAF267C9ABF2D0
:1011000068C9ACF269C9ADF209016A6F000E090144
:101110000901736F09016A5109016B6F040E09011E
:101120000901726F09016B51F1EC23F0C2EC67F019
:1011300097EF16F0090109014FA301D001D03AD071
:10114000010E090109015A2502010201AE6F000ECC
:10115000090109015B210201AF6F000E09010901BC
:101160005C210201B06F000E090109015D2102013D
:10117000B16F15EC55F072C9C9F273C9CAF2090111
:101180006A6F010E09010901736F09016A510901B2
:101190006B6F120E09010901726F09016B51F1ECBD
:1011A00023F009016A6F060E00010001846F090136
:1011B0006A5102D0C2EC67F097EF16F009010901FD
:1011C0004FA501D001D002D097EF16F00901090117
:1011D0004FA901D001D04BD0090109016951020189
:1011E0000201AD1914E1090109016851020102016E
:1011F000AC190DE109010901675102010201AB19A6
:1012000006E109010901665102010201AA19D8B4D7
:1012100001D001D02CD0AAC25AF9ABC25BF9ACC242
:101220005CF9ADC25DF966C9AAF267C9ABF268C9DB
:10123000ACF269C9ADF209016A6F010E0901090139
:10124000736F09016A5109016B6F040E09010901ED
:10125000726F09016B51F1EC23F05AC9AAF25BC914
:10126000ABF25CC9ACF25DC9ADF297EF16F00901C3
:1012700009014FA301D001D087D0010E0901090156
:101280005A2502010201AE6F000E090109015B211E
:101290000201AF6F000E090109015C210201B06F6C
:1012A000000E090109015D210201B16F0E0E090155
:1012B00009014A25E96E000E090109014B21EA6E78
:1012C0000201EECFB8F20201EDCFB9F215EC55F004
:1012D00072C9C9F273C9CAF2090109014FA901D043
:1012E00001D038D009016A6F010E09010901736F3D
:1012F00009016A5109016B6F100E09010901726F32
:1013000009016B51F1EC23F009016A6F070E00012E
:101310000001846F09016A510FEC79F0740E090124
:101320000901A125000100017C6F350E09010901A9
:10133000A22100017D6F060E09010901A321000110
:101340007E6F000E09010901A42100017F6F0001D9
:1013500085991AD009016A6F010E09010901736F9D
:1013600009016A5109016B6F120E09010901726FBF
:1013700009016B51F1EC23F009016A6F060E0001BF
:101380000001846F09016A5197EF16F00AD000013D
:1013900000018451040A01E19FD6010A01E10ED740
:1013A000F5D74CC954F94DC955F9090109014FA1A7
:1013B00001D001D004D009010901544B552B09017A
:1013C00009014FA301D001D004D009010901544BF8
:1013D000552B000100EE7AF0000110EE78F0E65295
:1013E000EE52ED50E55C02E1EF50E75CD8A001D091
:1013F00001D030D0000100EE78F0EECF6AF9EDCFE9
:101400006BF9000100017A5109016A5F00010001D6
:101410007B5109016B5B000100EE72F0EECF6CF9BD
:10142000EDCF6DF900010001705109016C5F000101
:101430000001715109016D5B09016A5109016C5D7F
:1014400009010901526F09016B5109016D59090127
:10145000536F1CD0000100EE7AF0EECF6AF9EDCFA9
:101460006BF900010001785109016A5F0001000178
:10147000795109016B5BFF0E09016A250901090118
:10148000526FFF0E09016B210901536F0201020126
:10149000AE51090109015A5D09010901626F02019A
:1014A0000201AF51090109015B590901636F020192
:1014B0000201B051090109015C590901646F02017F
:1014C0000201B151090109015D590901656F62C944
:1014D00056F963C957F909016A6F000E090109013C
:1014E0004E6F09016A510901090155515411D8B4CF
:1014F00001D001D0F9D00901090153515211D8B4DA
:1015000001D001D0F0D00901090165BF01D001D09F
:101510002FD009010901525109016A6F090109011E
:10152000535109016B6F09016C6B09016D6B090166
:101530006A5109010901625D09016B510901090143
:10154000635909016C5109010901645909016D517F
:10155000090109016559D8B001D001D009D00901AC
:101560006A6F010E090109014E6F09016A516CD0C1
:1015700009010901545109010901622509016A6F34
:1015800009010901555109010901632109016B6F25
:10159000000E09010901642109016C6F000E0901A7
:1015A0000901652109016D6F09016D51800A800FE4
:1015B00008E1000E6C5D05E1000E6B5D02E1010EBD
:1015C0006A5DD8A001D001D03FD009010901545172
:1015D00009010901525D09016A6F090109015551AB
:1015E00009010901535909016B6F09016C6B09016C
:1015F0006BBF6C0709016C5109016D6F09016D51D9
:10160000800A09016E6F09010901625109016A5DD1
:1016100009010901635109016B590901090164516B
:1016200009016C59090109016551800A09016E59C6
:10163000D8A001D001D008D009016A6F010E0901BC
:1016400009014E6F09016A5109010901525109014D
:101650006A6F09010901535109016B6F09016C6B34
:1016600009016D6B090109016551800A09016E6F5D
:1016700009016A5109010901625D09016B51090102
:101680000901635909016C510901090164590901F2
:101690006D51800A09016E59D8B001D001D023D014
:1016A000090156C96AF9090157C96BF9090109010C
:1016B000545109016A2709010901555109016B2398
:1016C00009016B51800A800F010ED8B46A5DD8A061
:1016D00001D001D008D009016A6F010E090109018A
:1016E0004E6F09016A5146D00901655162116311BB
:1016F0006411D8A401D001D009D009016A6F010E8C
:10170000090109014E6F09016A5134D0090109012B
:1017100065BF01D001D02ED0090109015251090144
:101720006A6F09010901535109016B6F09016C6B63
:1017300009016D6B09016A5109010901625D090125
:101740006B5109010901635909016C510901090132
:10175000645909016D51090109016559D8B001D0D9
:1017600001D008D009016A6F010E090109014E6F0D
:1017700009016A51090109014E6701D001D01AD04F
:10178000090109014FB501D001D012D009016A6FDA
:10179000010E09010901736F09016A5109016B6F9B
:1017A000100E09010901726F09016B51F1EC23F070
:1017B00097EF16F0090109014F51060BD8B401D07B
:1017C00001D004D0C2EC67F097EF16F009010901CF
:1017D0004FB901D001D002D097EF16F0AEEF10F064
:1017E00009010901695102010201AD1914E1090160
:1017F0000901685102010201AC190DE10901090159
:10180000675102010201AB1906E1090109016651A4
:1018100002010201AA19D8B401D001D02CD0AAC269
:101820005AF9ABC25BF9ACC25CF9ADC25DF966C9ED
:10183000AAF267C9ABF268C9ACF269C9ADF2090195
:101840006A6F010E09010901736F09016A510901EB
:101850006B6F040E09010901726F09016B51F1EC04
:1018600023F05AC9AAF25BC9ABF25CC9ACF25DC9FC
:10187000ADF297EF16F009016A6F070E0001000143
:10188000846F09016A5102010201B2510001000195
:10189000745D09010901586F02010201B351000191
:1018A000000175590901596F0901090159AF01D0AA
:1018B00001D01BD0000100EE70F0EECF6AF9EDCF41
:1018C0006BF9000100016E5109016A5F000100011E
:1018D0006F5109016B5B09016A5109010901582720
:1018E00009016B51090109015923090109015851E5
:1018F00002010201AA25090109015E6F090109011E
:10190000595102010201AB2109015F6F000E020172
:101910000201AC210901606F000E02010201AD213C
:101920000901616F090109016651090109015E5D43
:1019300009016A6F090109016751090109015F592C
:1019400009016B6F09010901685109010901605919
:1019500009016C6F09010901695109010901615906
:1019600009016D6F09016DAF01D001D014D00901DB
:101970006A6F000E09010901736F09016A510901BB
:101980006B6F100E09010901726F09016B51F1ECC7
:1019900023F097EF16F000010001765102010201D9
:1019A000B25D09016A6F0001000177510201020175
:1019B000B35909016B6F09016C6B09016BBF6C07AF
:1019C00009016C5109016D6F09016A51020102019F
:1019D000AA5D090109015E6F09016B510201020153
:1019E000AB5909015F6F09016C5102010201AC5949
:1019F0000901606F09016D5102010201AD59090130
:101A0000616F000100EE76F0020112EEB2F0E652D4
:101A1000EE52ED50E55C02E1EF50E75CD8B001D04A
:101A200001D028D0000100016E5100010001705D5D
:101A300009016A6F000100016F5100010001715935
:101A400009016B6F09016C6B09016D6B09016A512A
:101A5000090109015E5F09016B51090109015F5B21
:101A600009016C5109010901605B09016D5109010E
:101A70000901615B090109015E5109010901665D06
:101A8000090109015E6F090109015F51090109019D
:101A9000675909015F6F09010901605109010901D5
:101AA00068590901606F09010901615109010901C2
:101AB00069590901616F090109016151800A800FAB
:101AC0000BE1000E0901605D07E1000E09015F5D99
:101AD00003E1010E09015E5DD8A001D001D03BD128
:101AE000000100016E5100010001705D09016A6F83
:101AF000000100016F5100010001715909016B6F74
:101B000009016C6B09016D6B090109015E51090145
:101B10006A5D090109015F5109016B590901090158
:101B2000605109016C5909010901615109016D599F
:101B3000D8A001D001D00FD10201C8970201C899E5
:101B40000001869176C058F977C059F90901090159
:101B50005E51000100017627090109015F51000172
:101B60000001772309010901585102010201B25D08
:101B700009010901595102010201B359D8A001D04C
:101B800001D039D0000100EE76F0020112EEB2F081
:101B9000E652EE52ED50E55C02E1EF50E75CD8B062
:101BA00001D001D027D0000100EE76F0EECF6AF927
:101BB000EDCF6BF902010201B25109016A5F020126
:101BC0000201B35109016B5B09016A510201020173
:101BD000AA2709016B5102010201AB23000E020189
:101BE0000201AC23000E02010201AD2376C0B2F265
:101BF00077C0B3F257D0000100EE70F0EECF6AF973
:101C0000EDCF6BF9000100016E5109016A5F00011F
:101C100000016F5109016B5B02010201B251090120
:101C20006A2509010901586F02010201B351090136
:101C30006B210901596F0001000176510901090169
:101C4000585D000100017751090109015959D8B0C7
:101C500001D001D027D0000100EE76F0EECF6AF976
:101C6000EDCF6BF909010901585109016A5F0901BA
:101C70000901595109016B5B09016A510201020115
:101C8000AA2709016B5102010201AB23000E0201D8
:101C90000201AC23000E02010201AD2376C0B2F2B4
:101CA00077C0B3F2000100EE70F0000110EE76F0A4
:101CB000E652EE52ED50E55C02E1EF50E75CD8A051
:101CC00001D001D01BD0000100EE70F0EECF6AF918
:101CD000EDCF6BF9000100016E5109016A5F00014F
:101CE00000016F5109016B5B09016A51000100019C
:101CF000765F09016B5100010001775B000100EE86
:101D000070F0020112EEB2F0E652EE52ED50E55CD8
:101D100002E1EF50E75CD8A001D001D01BD0000158
:101D200000EE70F0EECF6AF9EDCF6BF90001000123
:101D30006E5109016A5F000100016F5109016B5B7F
:101D400009016A5102010201B25F09016B510201EE
:101D50000201B35B93D0020102EEB2F0000110EE7B
:101D600076F0E652EE52ED50E518EFCFE8FFD8B42A
:101D7000E718D8B401D001D081D002010201C8A770
:101D800001D001D079D002010201C8A901D001D04F
:101D900071D000010001765102010201B25D09011A
:101DA0006A6F00010001775102010201B359090174
:101DB0006B6F09016C6B09016BBF6C0709016C51FA
:101DC00009016D6F09016A5102010201AA5F09014F
:101DD0006B5102010201AB5B09016C51020102016E
:101DE000AC5B09016D5102010201AD5B000100EE27
:101DF00076F0020112EEB2F0E652EE52ED50E55CE2
:101E000002E1EF50E75CD8B001D001D02DD0000145
:101E100000016E5100010001705D09016A6F00014F
:101E200000016F5100010001715909016B6F090137
:101E30006C6B09016BBF6C0709016C5109016D6F77
:101E400009016A5102010201AA5F09016B510201F5
:101E50000201AB5B09016C5102010201AC5B09019B
:101E60006D5102010201AD5B76C0B2F277C0B3F2F0
:101E7000000186850201C8890201C887000100EEC1
:101E800074F0000110EE76F0E652EE52ED50E518D7
:101E9000EFCFE8FFD8B4E718D8A401D001D04DD0D7
:101EA0000001000186B701D001D01ED00FEC79F0FF
:101EB000740E09010901A125000100017C6F350E96
:101EC00009010901A22100017D6F060E0901090126
:101ED000A32100017E6F000E09010901A421000168
:101EE0007F6F0001859929D009010901695102011B
:101EF0000201AD1914E10901090168510201020151
:101F0000AC190DE109010901675102010201AB1988
:101F100006E109010901665102010201AA19D8A4CA
:101F200001D001D00AD002010201C8A101D001D024
:101F300004D00001859900018697020102EEAAF003
:101F4000EECF6AF9EDCF6BF909010901665109017C
:101F50006A5F09010901675109016B5B0E0E0901F6
:101F600009014A25E96E000E090109014B21EA6EBB
:101F7000EECF6CF9EDCF6DF909016A5109016C5D85
:101F800009010901506F09016B5109016D590901DE
:101F9000516F02010201B951B811D8A401D001D08A
:101FA0000AD00901090151515011D8B401D001D012
:101FB00002D00001868350C9B8F251C9B9F20001BC
:101FC00000018451080AD8A401D001D04BD00901E6
:101FD0000901695102010201AD1914E10901090168
:101FE000685102010201AC190DE1090109016751B3
:101FF00002010201AB1906E1090109016651020162
:102000000201AA19D8A401D001D02BD002010201EB
:10201000C8A101D001D025D00FEC79F0BA0E09018A
:102020000901A125000100017C6F1A0E09010901B7
:10203000A22100017D6F030E09010901A321000106
:102040007E6F000E09010901A42100017F6F0001CC
:10205000858909016A6F090E00010001846F090179
:102060006A5158D0000100018451090AD8A401D056
:1020700001D025D0090109014FB101D001D01ED0F6
:1020800066C9AAF267C9ABF268C9ACF269C9ADF218
:1020900009016A6F000E09010901736F09016A5194
:1020A00009016B6F140E09010901726F09016B516F
:1020B000F1EC23F0C2EC67F097EF16F02BD00001A3
:1020C000000184510A0AD8A401D001D023D009010B
:1020D0000901695102010201AD1914E10901090167
:1020E000685102010201AC190DE1090109016751B2
:1020F00002010201AB1906E1090109016651020161
:102100000201AA19D8A401D001D002D0C2EC67F014
:1021100097EF16F041D0090109016951020102014E
:10212000AD1914E109010901685102010201AC195C
:102130000DE109010901675102010201AB1906E134
:1021400009010901665102010201AA19D8A401D0AE
:1021500001D002D0C2EC67F097EF16F00001000149
:102160008451060A02E1F0EF0BF0010A02E143EFAD
:102170000CF00F0A02E143EF0CF0010A02E143EF19
:102180000CF0030A02E143EF0CF0010A02E143EF15
:102190000CF0070AC0E0BED7090109014FAB01D01E
:1021A00001D002D097EF16F00001000184510B0A14
:1021B000D8A401D001D002D097EF16F000010001A1
:1021C00084510A0AD8A401D001D002D097EF16F0AA
:1021D0000001000184510C0AD8A401D001D002D022
:1021E00097EF16F0090109014D514C11D8B401D0F7
:1021F00002D04CEF15F0090109015751800A800FF8
:10220000010ED8B4565DD8B001D001D0BBD10C0EB0
:10221000090109014A25E96E000E090109014B2156
:10222000EA6EEF380F0B09016A6F6AC96BF9090191
:102230006C6BD89009016B376C37D89009016B37FC
:102240006C3709010901565109016B5D090109014A
:10225000796F09010901575109016C5909017A6F18
:10226000D3EC78F0090109015651090109014C2705
:10227000090109015751090109014D23090109010A
:102280004C5109010901525D090109014D51090132
:1022900009015359D8B001D001D004D052C94CF92A
:1022A00053C94DF9090109014C5102010201AE2740
:1022B000090109014D5102010201AF23000E020183
:1022C0000201B023000E02010201B123000100EE61
:1022D00078F0EECF6AF9EDCF6BF9090109014C51A5
:1022E00009016A27090109014D5109016B230901FF
:1022F0006A5100010001725D09016B51000100018A
:102300007359D8B001D001D07FD0000100EE72F037
:10231000EECF6AF9EDCF6BF90001000178510901A8
:102320006A5F00010001795109016B5B010E09012F
:102330006A2509010901586F000E09016B21090185
:10234000596F58C9AAF959C9ABF909016A6F000E4A
:1023500009010901A96F09016A51FF0E090109016B
:10236000A76FFF0E0901A86F89C0A6F978C0A4F96C
:1023700079C0A5F9F4EC65F009010901585109018A
:1023800009014C5D09010901AA6F090109015951AF
:10239000090109014D590901AB6F09016A6F000E6E
:1023A00009010901A96F09016A51FF0E090109011B
:1023B000A76FFF0E0901A86F89C0A6F970C0A4F924
:1023C00071C0A5F9F4EC65F009014CC96AF909017D
:1023D0004DC96BF909010901585109016A5F0901E9
:1023E0000901595109016B5B00010001705109019C
:1023F0006A2500010001786F000100017151090197
:102400006B210001796F27D04CC9AAF94DC9ABF9EE
:1024100009016A6F000E09010901A96F09016A51DA
:10242000FF0E09010901A76FFF0E0901A86F89C0FE
:10243000A6F978C0A4F979C0A5F9F4EC65F0090112
:1024400009014C51000100017827090109014D5192
:1024500000010001792302010201C629D8B4C7296D
:10246000D8B401D001D08DD0090109014C5102012D
:102470000201C65F090109014D5102010201C75B5A
:1024800002010201C65102010201BA250901090136
:10249000586F02010201C75102010201BB2109016B
:1024A000596F0901090159AF01D001D006D00201CD
:1024B0000201C6690201C76964D0020102EEC6F0DA
:1024C000EE52ED50800A800F010ED8B4EF5CD8B008
:1024D00001D001D056D00901090158510201020171
:1024E000AE2709010901595102010201AF23000E73
:1024F00002010201B023000E02010201B123090111
:1025000009015851000100017827090109015951B9
:10251000000100017923000100EE78F0000110EEC7
:1025200072F0E652EE52ED50E55C02E1EF50E75CEE
:10253000D8B001D001D020D0000100EE72F0EECF73
:102540006AF9EDCF6BF900010001705109016A5F72
:1025500000010001715109016B5B010E09016A273D
:10256000000E6B2309016A5100010001785F090127
:102570006B5100010001795B02010201C669020191
:10258000C7698AD2090109015751800A800F010EDB
:10259000D8B4565DD8A001D001D07ED209014CC973
:1025A0006AF909014DC96BF909010901565109017F
:1025B0006A2709010901575109016B2309016A5171
:1025C00009010901525D09016B51090109015359C2
:1025D000D8B001D001D011D009010901565109012B
:1025E0000901525D090109014C6F090109015751A7
:1025F00009010901535909014D6F0C0E0901090127
:102600004A25E96E000E090109014B21EA6EEF38F7
:102610000F0B09016A6F6AC96BF909016C6BD890DD
:1026200009016B376C37D89009016B376C376BC970
:1026300079F96CC97AF9D3EC78F0000100EE78F002
:10264000EECF6AF9EDCF6BF9090109015651090185
:102650006A2709010901575109016B230901090181
:102660004C5109016A27090109014D5109016B23E8
:1026700009016A5100010001725D09016B510001FD
:1026800000017359D8B001D001D0CDD0000100EEC7
:1026900072F0EECF6AF9EDCF6BF9000100017851CD
:1026A00009016A5F00010001795109016B5B010EAC
:1026B00009016A27000E6B2309010901565109011E
:1026C0006A5D09010901586F0901090157510901A2
:1026D0006B590901596F0901090159BF01D001D096
:1026E00051D058C9AAF959C9ABF909016A6F000E4E
:1026F00009010901A96F09016A51FF0E09010901C8
:10270000A76FFF0E0901A86F89C0A6F90901090189
:10271000565100010001782509010901A46F090142
:10272000090157510001000179210901A56FF4EC5D
:1027300065F0090109015851090109014C5D0901C0
:102740000901AA6F090109015951090109014D59EE
:102750000901AB6F09016A6F000E09010901A96F38
:1027600009016A51FF0E09010901A76FFF0E090156
:10277000A86F89C0A6F970C0A4F971C0A5F9F4ECDE
:1027800065F050D04CC9AAF94DC9ABF909016A6F7F
:10279000000E09010901A96F09016A51FF0E090123
:1027A0000901A76FFF0E0901A86F89C0A6F90001F2
:1027B00000EE72F0EECF6BF9EDCF6CF90001000185
:1027C000705109016B5F00010001715109016C5BDF
:1027D000000100EE78F0EECF6DF9EDCF6EF9090152
:1027E0000901565109016D270901090157510901D4
:1027F0006E2309016B5109016D5D09016F6F0901BC
:102800006C5109016E590901706FFF0E09016F25A6
:1028100009010901A46FFF0E090170210901A56FCB
:10282000F4EC65F028D04CC9AAF94DC9ABF90901FF
:102830006A6F000E09010901A96F09016A51FF0EB3
:1028400009010901A76FFF0E0901A86F89C0A6F948
:10285000090109015651000100017825090109010A
:10286000A46F0901090157510001000179210901F3
:10287000A56FF4EC65F002010201C629D8B4C7299E
:10288000D8A401D001D009D056C9C6F257C9C7F2A1
:102890004CC9BAF24DC9BBF2FFD002010201C651C8
:1028A00009010901565D02010201C751090109012F
:1028B0005759D8B001D001D075D0090156C96AF96D
:1028C000090157C96BF9090109014C5109016A272E
:1028D000090109014D5109016B23020102EEC6F005
:1028E000EECF6CF9EDCF6DF902010201BA51090189
:1028F0006C2702010201BB5109016D2309016A51D4
:1029000009016C5D09016B5109016D59D8A001D015
:1029100001D01ED0090156C96AF9090157C96BF9DE
:10292000090109014C5109016A27090109014D51A9
:1029300009016B2302010201C65109016A5D02010E
:102940000201C75109016B59D8B001D001D005D09F
:102950004CC9BAF24DC9BBF220D0020102EEC6F05A
:10296000EECF6AF9EDCF6BF902010201BA5109010C
:102970006A2702010201BB5109016B230901090108
:10298000565109016A5D02010201BA6F090109018C
:10299000575109016B590201BB6F56C9C6F257C99D
:1029A000C7F27AD0090156C96AF9090157C96BF90A
:1029B000090109014C5109016A27090109014D5119
:1029C00009016B23020102EEC6F0EECF6CF9EDCFE8
:1029D0006DF902010201BA5109016C2702010201DD
:1029E000BB5109016D2309016A5109016C5D09019F
:1029F0006B5109016D59D8B001D001D04DD0020101
:102A000002EEC6F0EECF6AF9EDCF6BF902010201DA
:102A1000BA5109016A2702010201BB5109016B2366
:102A200009010901565109016A5D0901090157515E
:102A300009016B59D8A001D001D02ED0090156C987
:102A40006AF9090157C96BF9090109014C510901DA
:102A50006A27090109014D5109016B230201020195
:102A6000C65109016A5F02010201C75109016B5B8E
:102A700002010201BA5109016A5F02010201BB5160
:102A800009016B5B09016A5102010201BA270901C0
:102A90006B5102010201BB23090109015551541177
:102AA000D8B401D001D040D0000100018451070A00
:102AB000D8B401D001D004D078C07AF079C07BF0CE
:102AC0000001000185AF01D001D015D009016A6F66
:102AD000010E09010901736F09016A5109016B6F48
:102AE000100E09010901726F09016B51F1EC23F01D
:102AF0006BEC65F019D00001858F0001000185BDE8
:102B000001D001D011D00001858D02EC78F00F0EBC
:102B100009010901A12500010001826F000E0901D0
:102B20000901A2210001836F090109014FA101D010
:102B300001D0FDD0090109015451090109015A25AB
:102B400009016A6F090109015551090109015B2158
:102B500009016B6F000E090109015C2109016C6F0D
:102B6000000E090109015D2109016D6F010E0201CD
:102B70000201AE2509016E6F000E02010201AF21B4
:102B800009016F6F000E02010201B0210901706F8F
:102B9000000E02010201B1210901716F09016D519D
:102BA000090171190EE109016C510901701909E15E
:102BB00009016B5109016F1904E109016A51090109
:102BC0006E19D8A401D001D0B2D0010E02010201C9
:102BD000AE27000E0201AF23000E0201B023000E4B
:102BE0000201B12385D009016A6F0C0E00010001BA
:102BF000846F09016A5109016A6F010E0901090117
:102C0000736F09016A5109016B6F110E0901090106
:102C1000726F09016B51F1EC23F089D009016A6FE1
:102C20000B0E00010001846F09016A5102EC78F07B
:102C30001F0E09010901A12500010001826F000E8C
:102C400009010901A2210001836F5FD00901090177
:102C5000695102010201AD1914E10901090168512C
:102C600002010201AC190DE10901090167510201DC
:102C70000201AB1906E109010901665102010201D5
:102C8000AA19D8A401D001D015D009016A6F000E8D
:102C900009010901736F09016A5109016B6F100E77
:102CA00009010901726F09016B51F1EC23F0C2ECCB
:102CB00067F03DD009016A6F0A0E00010001846FC0
:102CC00009016A5122D009016A6F000E0901090148
:102CD000736F09016A5109016B6F100E0901090137
:102CE000726F09016B51F1EC23F0C2EC67F01FD059
:102CF000000100018451060A01E175D7010A8EE046
:102D00000F0AA4E0010ADFE0DDD709016A6F010EB6
:102D100009010901736F09016A5109016B6F100EF6
:102D200009010901726F09016B51F1EC23F01200E6
:102D30000901276F000E090109011E6F09012751C2
:102D4000000E090109011E6501D001D002D0EEEF8D
:102D50001CF01EC960F99AEC68F00901276F000E9B
:102D600009010901206F090127510901276F000E90
:102D7000090109011F6F090127510901276F000E81
:102D8000090109011D6F090127510001000186B3E6
:102D900001D001D006D00001000186A501D001D0EC
:102DA00018D02DEC76F00009D8B401D001D011D0A4
:102DB0000901276F100E09010901206F0901275130
:102DC000090109011F6B000186A503D00901090152
:102DD0001F2B0001000185AB01D001D025D002ECF2
:102DE00078F009010901A15100010001805D09018C
:102DF000276F09010901A251000100018159090150
:102E0000286F09012851800A800F010ED8B4275D70
:102E1000D8B001D001D008D00901276F100E0901E8
:102E20000901206F090127510001000185AD01D082
:102E300001D025D002EC78F009010901A15100016F
:102E40000001825D0901276F09010901A2510001FA
:102E5000000183590901286F09012851800A800F58
:102E6000010ED8B4275DD8B001D001D008D0090137
:102E7000276F100E09010901206F09012751000178
:102E8000000184510B0AD8A401D001D02DD002EC4E
:102E900078F009010901A15100010001825D0901D9
:102EA000276F09010901A25100010001835909019D
:102EB000286F09012851800A800F010ED8B4275DC0
:102EC000D8B001D001D010D00901276F110E09012F
:102ED0000901206F090127510901276F0C0E00011C
:102EE0000001846F09012751000100018451040A87
:102EF000D8A401D001D066D1000E09010901216FCB
:102F0000000E0901226F030E09010901215D000E67
:102F100009012259D8A001D001D001D053D1090113
:102F200009012151140DF3CF27F9100E09012727AC
:102F30000801000E09012725E96EEA6A0801080E5A
:102F4000EA22EE50ED10D8A401D001D001D03AD140
:102F5000000100EE87F0090109012151140DF3CFA2
:102F600027F9100E090127270801000E090127255E
:102F7000E16EE26A0801080EE222E652EE52ED50DE
:102F8000E518EFCFE8FFD8B4E718D8A401D001D0F6
:102F90000AD16BEC65F00A0E09010901B06F000E51
:102FA0000901B16F090109012151140D000E090138
:102FB000276F080E286FF35009012727E86AF3BE30
:102FC000E8680901282327C9AEF928C9AFF9020129
:102FD000BC0E09010901AC6F0201020E0901AD6FBF
:102FE000F0EC74F0090109012151140DF3CF27F918
:102FF0000A0E090127270801000E09012725E96E9D
:10300000EA6A0801080EEA220201EECFB4F20201D8
:10301000EDCFB5F2090109012151140DF3CF27F9C4
:103020000C0E090127270801000E09012725E96E6A
:10303000EA6A0801080EEA22EECF28F9EECF29F954
:10304000EECF2AF9EECF2BF9010E09012825020156
:103050000201AE6F000E090129210201AF6F000EBF
:1030600009012A210201B06F000E09012B21020182
:10307000B16F020102EEBEF0EECF27F9EDCF28F9D5
:1030800002010201BC510901272702010201BD51C1
:103090000901282302010201B45109012727020175
:1030A0000201B5510901282302010201B6510901AB
:1030B000271900010001876F02010201B7510901C0
:1030C00028190001886F0901276F120E09010901F3
:1030D000206F090127510901276F060E0001000129
:1030E000846F09012751140E09010901626F000E56
:1030F0000901636F09010901215102080901090150
:10310000606F090109012251D8A0E82A00080901CD
:10311000616F71EC73F060C9AAF961C9ABF909017B
:10312000276F010E09010901A96F09012751090142
:1031300009012129140D000E0901286F080E296FBD
:10314000F35009012827E86AF3BEE868090129233A
:1031500028C9A7F929C9A8F909012A6F010E09018F
:103160000901A66F09012A51090109012151140D14
:10317000000E09012B6F080E2C6FF35009012B274D
:10318000E86AF3BEE86809012C232BC9A4F92CC90D
:10319000A5F9F4EC65F0000E08010801386F000E87
:1031A0000801396F0FD009010901214B222B030EB1
:1031B00009010901215D000E09012259D8A001D0A1
:1031C00001D0ADD6090109012051D8B401D001D0F8
:1031D00010D0090109011F51D8B401D002D0010E4D
:1031E00001D0000E09010901736F20C972F9F1ECD9
:1031F00023F00001000185B901D001D088D0000181
:1032000000018451070AD8A401D001D04FD00FEC9F
:1032100079F0000100017C5109010901A15D09015A
:10322000276F000100017D5109010901A25909011F
:10323000286F000100017E5109010901A35909010C
:10324000296F000100017F5109010901A4590901F9
:103250002A6F09012AAF01D001D001D0B4D30001F7
:103260008551070B060AD8A401D001D020D009014E
:103270000901206B000185A703D009010901202B5A
:103280001EC92DF966EC58F01EC92DF966EC58F0F0
:1032900009010901206701D001D008D00901276F79
:1032A0000E0E00010001846F090127518CD36BECD5
:1032B00065F00901276F020E09010901736F090109
:1032C00027510901286F100E09010901726F0901C8
:1032D0002851F1EC23F00FEC79F0740E090109018B
:1032E000A125000100017C6F350E09010901A22111
:1032F00000017D6F060E09010901A32100017E6F07
:10330000000E09010901A42100017F6F5CD30FECBD
:1033100079F0000100017C5109010901A15D090159
:10332000276F000100017D5109010901A25909011E
:10333000286F000100017E5109010901A35909010B
:10334000296F000100017F5109010901A4590901F8
:103350002A6F09012AAF01D001D001D034D36BEC20
:1033600065F060D225EC79F00009D8B401D001D025
:103370002BD00901276F010E00010001846F0901A4
:10338000275102010201C8A501D001D00FD00901C7
:10339000276F010E090109012F6F09012751BCC2D6
:1033A0002DF9BDC22EF908EC73F00ED00901276F7C
:1033B000010E090109012F6F09012751BCC22DF926
:1033C000BDC22EF9D3EC72F052D20901230E0901CD
:1033D00009012D6F0901090E09012E6FBDEC1DF0C9
:1033E0000009D8B401D001D0EFD791EC77F00009F3
:1033F000D8B401D001D050D023C9BCF224C9BDF249
:1034000025C9BEF226C9BFF20901276F020E0001CD
:103410000001846F09012751020102EEBEF0EECFD8
:1034200027F9EDCF28F902010201BC510901272734
:1034300002010201BD510901282302010201B45118
:103440000901272702010201B551090128230201C0
:103450000201B6510901271900010001876F02011D
:103460000201B751090128190001886F0901276F6E
:10347000000E02010201CB6F09012751270E020144
:103480000201A66F000E0201A76F000E0201A86FD5
:10349000000E0201A96F23D00FEC79F0740E090120
:1034A0000901A125000100017C6F350E0901090108
:1034B000A22100017D6F060E09010901A32100016F
:1034C0007E6F000E09010901A42100017F6F09012F
:1034D000276F000E00010001846F09012751C7D139
:1034E00002EC78F0A1C980F0A2C981F00201BC0E03
:1034F000090109014C6F0201020E09014D6F51ECE7
:1035000064F00901276F030E00010001846F0901B7
:103510002751ADD10201C00E090109014E6F020110
:10352000020E09014F6F0201BC0E090109014C6F27
:103530000201020E09014D6F82EC5FF00009D8A470
:1035400001D001D03BD002EC78F0000100018051A5
:1035500009010901A15F000100018151090109016F
:10356000A25B09010901A15102010201A65D090145
:103570000901A25102010201A759D8B001D001D01E
:1035800023D7060E02010201CB6101D001D00DD07C
:1035900002010201CB2B0201D8900201A6370201E1
:1035A000A7370201A8370201A9370901276F020EC8
:1035B00000010001846F0901275159D10901276FCA
:1035C000020E09010901206F090127510901276F26
:1035D000000E090109011F6F090127510901276F19
:1035E000050E00010001846F0901275140D1090136
:1035F000276F020E09010901206F090127510901F6
:10360000276F010E090109011F6F090127510201EE
:1036100002EECBF0030EEF6401D001D0D5D6090144
:10362000276F040E02010201CB6F09012751200E02
:1036300002010201A66FEF0E0201A76F090E02013F
:10364000A86F000E0201A96F12D1020E0201020141
:10365000CB6101D001D011D00901276F120E0901F1
:103660000901206F090127510901276F010E090186
:1036700009011F6F09012751A7D60001000185A785
:1036800001D001D011D00901276F140E09010901E1
:10369000206F090127510901276F010E0901090156
:1036A0001D6F0901275108D00901276F020E09017A
:1036B0000901206F09012751DAD0050E020102012C
:1036C000CB6101D001D011D00901276F100E090183
:1036D0000901206F090127510901276F010E090116
:1036E00009011F6F090127516FD60901276F080EC5
:1036F00000010001846F090127510901276F110E94
:1037000009010901206F09012751B1D0050E0201FD
:103710000201CB6101D001D011D00901276F110E38
:1037200009010901206F090127510901276F010EC5
:10373000090109011F6F0901275146D60901276FA9
:10374000140E09010901206F090127510901276F92
:10375000010E090109011D6F0901275188D00901D6
:10376000276F140E09010901206F09012751090172
:10377000276F010E090109011D6F0901275177D03B
:10378000050E02010201CB6101D001D011D0090167
:10379000276F100E09010901206F09012751090146
:1037A000276F010E090109011F6F090127510CD66E
:1037B0000901276F140E09010901206F0901275122
:1037C0000901276F010E090109011D6F0901275128
:1037D0004ED0050E02010201CB6101D001D011D003
:1037E0000901276F110E09010901206F09012751F5
:1037F0000901276F010E090109011F6F09012751F6
:10380000E3D50901276F140E09010901206F090191
:1038100027510901276F010E090109011D6F0901D7
:10382000275125D0000100018451000A01E19AD5F9
:10383000010A01E1CAD5030A01E152D6010A01E1F8
:1038400069D6060A01E1D3D6030A01E1FED6010AD0
:1038500001E133D70F0A01E159D7010A80E0030AD9
:103860008FE0010A01E129D7070AB3E0ADD50901CC
:1038700009012051D8B401D001D09CD0090109011F
:103880001F51D8B401D001D089D002010201CB2B45
:103890000201D8900201A6370201A7370201A8371A
:1038A0000201A93700010001765102010201B25D57
:1038B00009010901216F0001000177510201020194
:1038C000B3590901226F000100EE76F0020112EEF9
:1038D000B2F0E652EE52ED50E55C02E1EF50E75CEB
:1038E000D8B001D001D01BD0000100EE70F0EECFB7
:1038F00027F9EDCF28F9000100016E510901275F7A
:10390000000100016F510901285B090127510901DC
:10391000090121270901285109010901222309016F
:10392000090121510901276F0901090122510901EA
:10393000286F0901296B09012A6B0901275102012E
:103940000201AA5F0901285102010201AB5B0901D2
:10395000295102010201AC5B09012A510201020155
:10396000AD5B09010901215102010201B8270901DA
:103970000901225102010201B92376C0B2F277C0D7
:10398000B3F20901276F000E09010901736F0901E4
:10399000275120C972F9F1EC23F00CD00901276FEF
:1039A000010E09010901736F0901275120C972F93C
:1039B000F1EC23F0090109011D51D8B401D001D067
:1039C00002D0C2EC67F0090109011E2B000E0901AB
:1039D00009011E6501D002D0A9EF16F0000E090101
:1039E0000901216F000E0901226F030E090109016F
:1039F000215D000E09012259D8A001D001D001D0CB
:103A0000BBD0090109012151140DF3CF27F9100E84
:103A1000090127270801000E09012725E96EEA6A36
:103A20000801080EEA22EE50ED10D8A401D001D012
:103A300001D0A2D0090109012151140DF3CF27F9BA
:103A4000120E090127270801000E09012725E96E3A
:103A5000EA6A0801080EEA22EECF28F9EDCF29F92B
:103A600002EC78F00901285109010901A15D090161
:103A70002A6F0901295109010901A25909012B6F76
:103A8000DD0E09012A5D010E2B59D8A001D001D00D
:103A900064D0140E09010901626F000E0901636F01
:103AA000090109012151020809010901606F090199
:103AB00009012251D8A0E82A00080901616F71ECC0
:103AC00073F060C9AAF961C9ABF90901276F010E4A
:103AD00009010901A96F09012751090109012129DA
:103AE000140D000E0901286F080E296FF35009010B
:103AF0002827E86AF3BEE8680901292328C9A7F93D
:103B000029C9A8F909012A6F010E09010901A66F47
:103B100009012A51090109012151140D000E090161
:103B20002B6F080E2C6FF35009012B27E86AF3BEA8
:103B3000E86809012C232BC9A4F92CC9A5F9F4ECD8
:103B400065F0000E08010801386F000E0801396F9A
:103B5000090109012107D8A0220709010901214B08
:103B6000222B030E09010901215D000E09012259D2
:103B7000D8A001D001D045D71200CCEF23F0090125
:103B8000486F000E266E090148510901486F000E6A
:103B9000276E0901485102017F0E090109014C6F8E
:103BA0000201020E09014D6F51EC64F0262A0FEC60
:103BB00079F0A1C9ECF1A2C9EDF1A3C9EEF1A4C954
:103BC000EFF10901486F020E02010201F56F0901D0
:103BD0004851EEEF23F00001B40E090109014E6FC8
:103BE0000001000E09014F6F02017F0E090109015A
:103BF0004C6F0201020E09014D6F82EC5FF000096B
:103C0000D8A401D001D046D00FEC79F00101010118
:103C1000EC5109010901A15D0901486F0101010190
:103C2000ED5109010901A2590901496F0101010181
:103C3000EE5109010901A35909014A6F010101016E
:103C4000EF5109010901A45909014B6FF30E485DB9
:103C50009E0E4959000E4A59000E09014B59D8A031
:103C600001D001D015D00901486F010E02010201F7
:103C7000F56F09014851020E266401D001D008D029
:103C80000901486F060E02010201F56F0901485152
:103C9000EEEF23F07FC2B0F080C2B1F081C2B2F08B
:103CA00082C2B3F00901486F030E02010201F56FF1
:103CB00009014851350E09010901536F000E090130
:103CC000546F000E09010901516F000E0901526F76
:103CD0000901486F040E09010901506F090148519B
:103CE000B00E0901496F000E4A6F090149C94CF92C
:103CF00009014AC94DF9090109014E6B09014F6BD0
:103D000042EC40F002010201F26F02010201F229CD
:103D1000D8A401D001D002D0EEEF23F00901486F02
:103D2000040E02010201F56F09014851F2C24CF97B
:103D3000ABEC71F009014D514C11D8A401D001D068
:103D400002D0EEEF23F000010001E94BEA2BEAC0BC
:103D500053F9B7EC76F0E9C053F9B7EC76F0090106
:103D6000486F010E09010901536F09014851B7EC71
:103D700076F00901486F000E09010901536F09012E
:103D80004851B7EC76F00901486F000E09010901AE
:103D9000536F09014851B7EC76F00901486F010EE5
:103DA00009010901536F09014851B7EC76F0090187
:103DB000486F000E09010901536F09014851B7EC22
:103DC00076F00901486F000E09010901536F0901DE
:103DD0004851B7EC76F00901486F000E090109015E
:103DE000536F09014851B7EC76F00901486F000E96
:103DF00009010901536F09014851B7EC76F0090137
:103E0000486F000E09010901536F09014851B7ECD1
:103E100076F00901486F000E09010901536F09018D
:103E20004851B7EC76F000010001E251E111D8B43D
:103E300001D001D007D0E1C04CF9E2C04DF92BEC24
:103E400063F006D0E3C04CF9E4C04DF967EC61F0D3
:103E50000901486F000E09010901536F090148511A
:103E6000B7EC76F025C053F9B7EC76F00901486F4E
:103E7000000E09010901536F09014851B7EC76F0B2
:103E80000901486F010E09010901536F09014851E9
:103E9000B7EC76F0BFEC63F00FEC79F0A1C9ECF170
:103EA000A2C9EDF1A3C9EEF1A4C9EFF10901486F70
:103EB000050E02010201F56F09014851EEEF23F0F2
:103EC000F2C24CF908EC74F009014D514C11D8A420
:103ED00001D001D039D00FEC79F001010101EC5192
:103EE00009010901A15D0901486F01010101ED51BD
:103EF00009010901A2590901496F01010101EE51AE
:103F000009010901A35909014A6F01010101EF519A
:103F100009010901A45909014B6FF30E485D9E0E7A
:103F20004959000E4A59000E09014B59D8A001D039
:103F300001D0AED60901486F060E02010201F56FED
:103F400009014851EEEF23F009013D0E0901090175
:103F50004D6F0901090E09014E6F74EC76F00901ED
:103F60003C0E090109014D6F0901090E09014E6F4F
:103F700074EC76F000010001EA51090109013D19D4
:103F800006E100010001E951090109013C19D8B419
:103F900001D001D004D0C1EC78F0EEEF23F009019C
:103FA0003F0E090109014D6F0901090E09014E6F0C
:103FB00074EC76F009013E0E090109014D6F09010B
:103FC000090E09014E6F74EC76F00901410E0901EA
:103FD00009014D6F0901090E09014E6F74EC76F06D
:103FE0000901400E090109014D6F0901090E09017E
:103FF0004E6F74EC76F00901430E090109014D6F13
:104000000901090E09014E6F74EC76F00901420EA8
:10401000090109014D6F0901090E09014E6F74EC88
:1040200076F00901450E090109014D6F0901090EDC
:1040300009014E6F74EC76F00901440E0901090183
:104040004D6F0901090E09014E6F74EC76F00901FC
:10405000470E090109014D6F0901090E09014E6F53
:1040600074EC76F00901460E090109014D6F090152
:10407000090E09014E6F74EC76F02ED06CEC71F0E5
:104080000901310E090109014D6F0901090E0901EC
:104090004E6F74EC76F00901300E090109014D6F85
:1040A0000901090E09014E6F74EC76F00901310E19
:1040B000090109014D6F0901090E09014E6F74ECE8
:1040C00076F00901300E090109014D6F0901090E51
:1040D00009014E6F74EC76F0090109014007D8A080
:1040E000410709014029D8B44129D8A401D001D001
:1040F000C5D7D0D06CEC71F00901330E090109016C
:104100004D6F0901090E09014E6F74EC76F009013B
:10411000320E090109014D6F0901090E09014E6FA7
:1041200074EC76F00901350E090109014D6F0901A2
:10413000090E09014E6F74EC76F00901340E090185
:1041400009014D6F0901090E09014E6F74EC76F0FB
:104150000901390E090109014D6F0901090E090113
:104160004E6F74EC76F00901380E090109014D6FAC
:104170000901090E09014E6F74EC76F00901370E42
:10418000090109014D6F0901090E09014E6F74EC17
:1041900076F00901360E090109014D6F0901090E7A
:1041A00009014E6F74EC76F009013B0E090109011B
:1041B0004D6F0901090E09014E6F74EC76F009018B
:1041C0003A0E090109014D6F0901090E09014E6FEF
:1041D00074EC76F00901090132053311D8A401D03D
:1041E00001D03FD00901090134053511D8A401D00F
:1041F00001D037D0090109013A51040A3B11D8A472
:1042000001D001D02ED02B820001B00E090109018E
:104210004D6F0001000E09014E6F74EC76F0000145
:10422000B10E090109014D6F0001000E09014E6F29
:1042300074EC76F00001B20E090109014D6F000126
:10424000000E09014E6F74EC76F00001B30E090107
:1042500009014D6F0001000E09014E6F74EC76F0FC
:10426000E2D10BD009012F0E090109014D6F09019F
:10427000090E09014E6F74EC76F0090109013A0745
:10428000D8A03B0709013A29D8B43B29D8A401D0CA
:1042900001D0E8D7090109014207D8A04307090165
:1042A0004229D8B44329D8A401D001D023D7D0D0F3
:1042B0006CEC71F00901330E090109014D6F090120
:1042C000090E09014E6F74EC76F00901320E0901F6
:1042D00009014D6F0901090E09014E6F74EC76F06A
:1042E0000901350E090109014D6F0901090E090186
:1042F0004E6F74EC76F00901340E090109014D6F1F
:104300000901090E09014E6F74EC76F00901390EAE
:10431000090109014D6F0901090E09014E6F74EC85
:1043200076F00901380E090109014D6F0901090EE6
:1043300009014E6F74EC76F00901370E090109018D
:104340004D6F0901090E09014E6F74EC76F00901F9
:10435000360E090109014D6F0901090E09014E6F61
:1043600074EC76F009013B0E090109014D6F09015A
:10437000090E09014E6F74EC76F009013A0E09013D
:1043800009014D6F0901090E09014E6F74EC76F0B9
:104390000901090132053311D8A401D001D03FD061
:1043A0000901090134053511D8A401D001D037D055
:1043B000090109013A51040A3B11D8A401D001D0E6
:1043C0002ED02B820001B00E090109014D6F0001B2
:1043D000000E09014E6F74EC76F00001B10E090178
:1043E00009014D6F0001000E09014E6F74EC76F06B
:1043F0000001B20E090109014D6F0001000E090113
:104400004E6F74EC76F00001B30E090109014D6F97
:104410000001000E09014E6F74EC76F004D10BD050
:1044200009012F0E090109014D6F0901090E09014A
:104430004E6F74EC76F0090109013A07D8A03B07EA
:1044400009013A29D8B43B29D8A401D001D0E8D732
:10445000090109014407D8A0450709014429D8B436
:104460004529D8A401D001D023D7D0D06CEC71F06D
:104470000901330E090109014D6F0901090E0901F6
:104480004E6F74EC76F00901320E090109014D6F8F
:104490000901090E09014E6F74EC76F00901350E21
:1044A000090109014D6F0901090E09014E6F74ECF4
:1044B00076F00901340E090109014D6F0901090E59
:1044C00009014E6F74EC76F00901390E09010901FA
:1044D0004D6F0901090E09014E6F74EC76F0090168
:1044E000380E090109014D6F0901090E09014E6FCE
:1044F00074EC76F00901370E090109014D6F0901CD
:10450000090E09014E6F74EC76F00901360E0901AF
:1045100009014D6F0901090E09014E6F74EC76F027
:1045200009013B0E090109014D6F0901090E09013D
:104530004E6F74EC76F009013A0E090109014D6FD6
:104540000901090E09014E6F74EC76F009010901A9
:1045500032053311D8A401D001D03FD0090109019F
:1045600034053511D8A401D001D037D00901090193
:104570003A51040A3B11D8A401D001D02ED02B828D
:104580000001B00E090109014D6F0001000E090183
:104590004E6F74EC76F00001B10E090109014D6F08
:1045A0000001000E09014E6F74EC76F00001B20EAE
:1045B000090109014D6F0001000E09014E6F74ECF5
:1045C00076F00001B30E090109014D6F0001000EE4
:1045D00009014E6F74EC76F026D00BD009012F0E36
:1045E000090109014D6F0901090E09014E6F74ECB3
:1045F00076F0090109013A07D8A03B0709013A29D9
:10460000D8B43B29D8A401D001D0E8D709010901C9
:104610004607D8A0470709014629D8B44729D8A496
:1046200001D001D023D7C1EC78F0F2C24CF978EC7C
:104630006EF002010201F2690901486F070E0201E2
:104640000201F56F090148512BB201D001D00DD004
:10465000000E00010001B06F000E0001B16F000EEE
:104660000001B26F000E0001B36F2DC9E9FF2EC922
:10467000EAFF0001B0C0EEFF0001B1C0EEFF000193
:10468000B2C0EEFF0001B3C0EEFF010EA9D0010ED3
:10469000276401D001D010D02DC9E9FF2EC9EAFF4F
:1046A000000EEE6E000EEE6E000EEE6E000EED6E63
:1046B000ED52ED52010E94D0272A0201865183114A
:1046C00084118511D8B401D002D048EF1EF0020148
:1046D00002018351020102017F1B02010201845188
:1046E00002010201801B0201020185510201020147
:1046F000811B02010201865102010201821B02019B
:1047000002017F5102010201831B0201020180515B
:1047100002010201841B0201020181510201020116
:10472000851B02010201825102010201861B020166
:1047300002018351020102017F1B02010201845127
:1047400002010201801B02010201855102010201E6
:10475000811B02010201865102010201821B090133
:10476000486F000E266E0901485102010201F2292C
:10477000D8B401D001D007D0F2C24CF978EC6EF079
:1047800002010201F2690901486F010E02010201F2
:10479000F56F0901485122D002010201F551000ACA
:1047A00002E1BFEF1DF0010A02E1CBEF1DF0030AA9
:1047B00002E1EBEF1DF0010A02E15AEF1EF0070AD9
:1047C00002E196EF1EF0010A02E160EF1FF0030A1A
:1047D00001E15DD7010A01E137D700D0000E00D01A
:1047E00012006BEC65F00901090172A101D001D042
:1047F00005D0000186870901090172910001859B9E
:104800000001859D0001859F00018693000186952A
:104810000001869100D02DEC76F00009D8B401D0CB
:1048200001D0F9D7090109017251060BD8B401D0A2
:1048300001D008D0000E09010901766F000E0901B0
:10484000776FC4D1020102EEB2F0000110EE74F0F5
:10485000E652EE52ED50E518EFCFE8FFD8B4E71876
:10486000D8A401D001D008D0000E09010901766F4B
:10487000000E0901776F7FD1000100EE74F0020194
:1048800012EEB2F0E652EE52ED50E55C02E1EF506E
:10489000E75CD8B001D001D063D002010201B2516F
:1048A00000010001745D09010901766F0201020136
:1048B000B3510001000175590901776F0901090120
:1048C000765102010201B85D090109017751020127
:1048D0000201B959D8B001D001D004D0B8C276F9DC
:1048E000B9C277F909010901765102010201C95DD6
:1048F00009010901775102010201CA59D8B001D05A
:1049000001D006D0C9C276F9CAC277F900018685FE
:1049100076C9AAF977C9ABF989C0A9F9B2C2A7F9D2
:10492000B3C2A8F909019C6F000E09010901A66F25
:1049300009019C51050E09010901A46F0B0E090123
:10494000A56FF4EC65F0090109017651020102013D
:10495000B22709010901775102010201B3230BD1EA
:1049600002010201B25100010001705D090109015B
:10497000866F02010201B351000100017159090162
:10498000876F090109EE86F0EECF9CF9EDCF9DF916
:1049900000010001745109019C27000100017551BB
:1049A00009019D23000100016E5109019C5D09016F
:1049B0000901766F000100016F5109019D5909013C
:1049C000776F09010901765102010201B85D090101
:1049D0000901775102010201B959D8B001D001D0C3
:1049E00004D0B8C276F9B9C277F909010901765144
:1049F00002010201C95D09010901775102010201A9
:104A0000CA59D8B001D001D006D0C9C276F9CAC2FD
:104A100077F900018685090109018651090109011B
:104A2000765D090109018751090109017759D8B05B
:104A300001D001D004D076C986F977C987F986C933
:104A4000AAF987C9ABF989C0A9F9B2C2A7F9B3C25B
:104A5000A8F909019C6F000E09010901A66F09015F
:104A60009C51050E09010901A46F0B0E0901A56FE8
:104A7000F4EC65F009010901865109010901765D2F
:104A800009010901866F090109018751090109011D
:104A900077590901876F0901090187518611D8B437
:104AA00001D001D030D086C9AAF987C9ABF989C035
:104AB000A9F96EC0A7F96FC0A8F909019C6F000E93
:104AC00009010901A66F09019C51000100EE70F077
:104AD000EECF9DF9EDCF9EF902010201B25109011D
:104AE0009D5F02010201B35109019E5B050E0901A0
:104AF0009D2509010901A46F0B0E09019E210901E1
:104B0000A56FF4EC65F0090109017651020102017B
:104B1000B22709010901775102010201B323000103
:104B200000EE70F0020112EEB2F0E652EE52ED50DD
:104B3000E55C02E1EF50E75CD8A001D001D01BD0CA
:104B4000000100EE70F0EECF9CF9EDCF9DF9000171
:104B500000016E5109019C5F000100016F510901C4
:104B60009D5B09019C5102010201B25F09019D5147
:104B700002010201B35B0001000186A701D001D050
:104B800025D0020102EEB8F00901EE520901775179
:104B9000ED18090176C9E8FFD8B4EF18D8B401D0F0
:104BA00001D014D0020102EEC9F00901EE52090150
:104BB0007751ED18090176C9E8FFD8B4EF18D8B4D9
:104BC00001D001D003D00901090172810901090155
:104BD00077517611D8A401D001D008D0090109017C
:104BE0007251030BD8B401D001D058D0090109018A
:104BF000765102010201B85F0901090177510201F2
:104C00000201B95B0901090177517611D8B401D0CD
:104C100001D003D00901090172870901090173A1BB
:104C200001D001D015D009019C6F000E02010201D4
:104C3000CB6F09019C51F20E02010201A66F9E0E7C
:104C40000201A76F000E0201A86F000E0201A96FFA
:104C50000FEC79F002010201A65109010901A12519
:104C6000000100017C6F02010201A7510901090145
:104C7000A22100017D6F02010201A8510901090171
:104C8000A32100017E6F02010201A951090109015E
:104C9000A42100017F6F0001858973D009010901FA
:104CA00073A301D001D02AD0010E09019C6F00012D
:104CB00000018551070B09019D6F09019C510901F4
:104CC0009D2700010001855109019D19F80B09017B
:104CD0009D1900010001856F02010201AA07000E63
:104CE0000201AB5B0201AC5B0201AD5B010E09018D
:104CF0000901766F000E0901776F43D000010001B2
:104D000085A901D001D03DD00901090173B101D0BD
:104D100001D014D002010201CB51D8B401D001D08E
:104D20000DD002010201CB070201D8900201A93384
:104D30000201A8330201A7330201A6330FEC79F078
:104D400002010201A65109010901A125000100018A
:104D50007C6F02010201A75109010901A221000192
:104D60007D6F02010201A85109010901A32100017F
:104D70007E6F02010201A95109010901A42100016C
:104D80007F6FB6C288F9B7C289F9B4C28AF9B5C2D1
:104D90008BF9AAC28CF9ABC28DF9ACC28EF9ADC247
:104DA0008FF9AEC290F9AFC291F9B0C292F9B1C217
:104DB00093F93F0E09019517090194910901949304
:104DC00009019495090194970B000E0072C995F999
:104DD000000E090109019A6F000E09019B6F09017C
:104DE0000901765102010201AA270901090177513F
:104DF00002010201AB23000E02010201AC23000EEE
:104E000002010201AD230901090172A301D001D001
:104E100033D00901090172B901D001D00DD0000EC3
:104E200009010901906F000E0901916F000E09013F
:104E3000926F000E0901936F02010201C8A301D015
:104E400001D00BD0090109018C07000E09018D5B0F
:104E500009018E5B09018F5B0FD0010E0201020177
:104E6000AA27000E0201AB23000E0201AC23000EA4
:104E70000201AD230201C8830901090172A101D019
:104E800001D020D002010201C8A101D001D00BD075
:104E9000090109018C07000E09018D5B09018E5B78
:104EA00009018F5B0FD0010E02010201AA27000E3B
:104EB0000201AB23000E0201AC23000E0201AD2360
:104EC0000201C881000100EE7AF0000110EE78F0D6
:104ED000E652EE52ED50E55C02E1EF50E75CD8A0FF
:104EE00001D001D030D0000100EE78F0EECF9CF977
:104EF000EDCF9DF9000100017A5109019C5F00018D
:104F000000017B5109019D5B000100EE72F0EECFC4
:104F10009EF9EDCF9FF900010001705109019E5FDC
:104F200000010001715109019F5B09019C510901B8
:104F30009E5D09010901966F09019D5109019F5963
:104F40000901976F1CD0000100EE7AF0EECF9CF9BA
:104F5000EDCF9DF900010001785109019C5F00012E
:104F60000001795109019D5BFF0E09019C25090192
:104F70000901966FFF0E09019D210901976F6BECE6
:104F800066F0A0C974F9A1C975F9400E09010901BB
:104F9000745D000E09017559D8B001D001D008D058
:104FA000000E09010901746F000E0901756F07D029
:104FB000400E09010901745F000E0901755B0901CA
:104FC0000901965109010901745D0901090197510F
:104FD000090109017559D8B001D001D004D074C9B4
:104FE00096F975C997F90901880E09010901A06FA1
:104FF0000901090E0901A16F9DEC4EF0140E090183
:1050000009017627000E09017723090194510F0B3E
:1050100050090901946F0901090172A301D001D05F
:1050200038D0040E090109017627000E0901772303
:1050300009019C6F020E09010901786F09019C5159
:1050400009019C6F040E09010901796F09019C5146
:10505000020E090109017A6F180E09017B6F010E1A
:1050600009019C6F0901090194390F0B09019D6F1A
:1050700009019C5109019D2709019D3B0901090175
:10508000945109019D190F0B09019D19090109018D
:10509000946F73C27CF974C27DF975C27EF976C2D1
:1050A0007FF9BCC280F9BDC281F9BEC282F9BFC21C
:1050B00083F909019C6F000E09010901846F090140
:1050C0009C5109019C6F060E09010901856F0901B8
:1050D0009C5176C986F977C987F986C9BCF987C911
:1050E000BDF9E3EC78F0BCC986F9BDC987F90C0EAF
:1050F00009010901BC6F000E0901BD6F09017C0E99
:1051000009010901BA6F0901090E0901BB6FFFEC22
:1051100061F009010901BA1D09010901986F09012E
:105120000901BB1D0901996FDD0E09010901AC6F71
:105130000A0E0901AD6F39EC79F076C9A3F977C988
:10514000A4F909019C6F060E09010901A26F09016A
:105150009C510201BC0E09010901A06F0201020E5F
:105160000901A16F20EC5CF0140E09010901C26F66
:10517000000E0901C36F0901880E09010901C06F02
:105180000901090E0901C16F74EC77F009010901E9
:1051900072A301D001D012D0040E09010901C26F1F
:1051A000000E0901C36F0901780E09010901C06FE2
:1051B0000901090E0901C16F74EC77F0F10E0901C4
:1051C0000901AC6F0A0E0901AD6F1BEC79F076C9CD
:1051D000A0F977C9A1F99BEC57F0A0C974F9A1C94E
:1051E00075F9010E09010901AC6F0B0E0901AD6FD4
:1051F00039EC79F0020E09010901C26F000E0901B4
:10520000C36F0901740E09010901C06F0901090E7C
:105210000901C16F74EC77F03DEC73F012000901E5
:105220001E6F000E090109011D6F09011E51000EBC
:10523000090109011D6501D001D001D09ED368D3B9
:1052400092D3430E09010901536F000E0901546FF7
:10525000440E09010901516F000E0901526F090145
:105260001E6F000E09010901506F09011E51000E49
:10527000090109014C6F000E09014D6F000E090173
:105280004E6F000E09014F6F42EC40F00101010129
:10529000006F010101010029D8A401D001D001D083
:1052A00062D309011E6F020E01010101016F0901A4
:1052B0001E513C0E01010101076F000E0101086F34
:1052C000000E0101096F000E01010A6F09011E6F36
:1052D000000E01010101236F09011E51010102911C
:1052E0000101029578EC78F00009D8A401D001D032
:1052F00001D039D300C14CF9ABEC71F02C0E09018F
:1053000009014C5D010E09014D59D8B001D001D001
:1053100001D029D3010102790A0E090109015D6F4B
:10532000000E09015E6FFF0E090109015B6F000E9F
:1053300009015C6F010101010051170D0201000E0E
:10534000F32409010901596F09015A6B0201020E88
:1053500009015A2318EC77F009011E6F000E0901AC
:105360000901236F09011E5109011F6F010E090177
:105370000901226F09011F5104EC36F00FEC79F09E
:10538000A1C903F1A2C904F1A3C905F1A4C906F199
:1053900009011E6F030E01010101016F09011E5178
:1053A000E2D200C14CF908EC74F0FA0E09010901CF
:1053B0004C5D000E09014D59D8B001D001D038D054
:1053C0000FEC79F001010101035109010901A15D0F
:1053D00009011E6F01010101045109010901A259CE
:1053E00009011F6F01010101055109010901A359BB
:1053F0000901206F01010101065109010901A459A8
:105400000901216FE40E1E5D3D0E1F59010E20594A
:10541000000E09012159D8A001D001D011D70901EE
:105420001E6F020E01010101016F09011E519BD285
:1054300001010287BEEC2CF0020AD8B401D001D0E1
:1054400001D091D209011E6F040E01010101016F0B
:1054500009011E5100C14CF9ABEC71F0020E0901BB
:1054600009014C5D010E09014D59D8B001D001D0A0
:1054700001D079D20A0E090109015D6F000E090100
:105480005E6FFF0E090109015B6F000E09015C6F81
:10549000010101010051170D0201000EF324090161
:1054A0000901596F09015A6B0201020E09015A23C1
:1054B00018EC77F009011E6F000E09010901236F36
:1054C00009011E5109011F6F030E09010901226F15
:1054D00009011F5104EC36F00FEC79F0A1C903F17A
:1054E000A2C904F1A3C905F1A4C906F109011E6FFF
:1054F000050E01010101016F09011E5134D200C1E5
:105500004CF908EC74F0FA0E090109014C5D000E2B
:1055100009014D59D8B001D001D038D00FEC79F045
:1055200001010101035109010901A15D09011E6F7A
:1055300001010101045109010901A25909011F6F6B
:1055400001010101055109010901A3590901206F58
:1055500001010101065109010901A4590901216F45
:10556000E40E1E5D3D0E1F59010E2059000E09016B
:105570002159D8A001D001D063D609011E6F020EB7
:1055800001010101016F09011E51EDD17AD000C165
:105590004CF978EC6EF00101010100690FEC79F033
:1055A000A1C903F1A2C904F1A3C905F1A4C906F177
:1055B00009011E6F060E01010101016F09011E5153
:1055C00001010283010102810101010123A101D036
:1055D00001D008D00FC173F210C174F211C175F27D
:1055E00012C176F20101010123A501D001D008D03A
:1055F00017C177F218C178F219C179F21AC17AF29B
:105600000101010123A301D001D008D013C17BF215
:1056100014C17CF215C17DF216C17EF201010101B7
:1056200023A701D001D008D01BC17FF21CC180F29A
:105630001DC181F21EC182F2000E02010201836FC0
:10564000000E0201846F000E0201856F000E020140
:10565000866F0101010123A901D001D008D01FC12B
:1056600083F220C184F221C185F222C186F2E8D5FD
:1056700009011E6F020E01010101016F09011E5196
:10568000DFD5BEEC2CF0050A82E0030AF1E0D8D5A4
:105690000FEC79F001010101035109010901A15D3C
:1056A00009011E6F01010101045109010901A259FB
:1056B00009011F6F01010101055109010901A359E8
:1056C0000901206F01010101065109010901A459D5
:1056D0000901216FF20E1E5D9E0E1F59000E20590A
:1056E000000E09012159D8B001D001D001D03BD121
:1056F000020E0101075D000E01010859000E0101B3
:105700000959000E010101010A59D8A001D001D0A8
:1057100018D0F20E0101010103279E0E010104239E
:10572000000E01010523000E010106230101010104
:105730000707000E0101085B0101095B01010A5B1B
:1057400012D1430E09010901536F000E0901546F74
:10575000440E09010901516F000E0901526F090140
:105760001E6F000E09010901506F09011E51000E44
:10577000090109014C6F000E09014D6F000E09016E
:105780004E6F000E09014F6F42EC40F00101010124
:10579000006F010101010029D8A401D001D001D07E
:1057A000E2D009011E6F070E01010101016F09011D
:1057B0001E5100C14CF9ABEC71F0020E0901090158
:1057C0004C5D010E09014D59D8B001D001D001D076
:1057D000CAD009011E6F010E09010901236F0901D9
:1057E0001E5109011F6F030E09010901226F0901F2
:1057F0001F5104EC36F0010102950FEC79F0A1C9BC
:1058000003F1A2C904F1A3C905F1A4C906F101017C
:105810000101012BA8D000C14CF908EC74F0FA0E7C
:10582000090109014C5D000E09014D59D8B001D0A4
:1058300001D041D00FEC79F00101010103510901C0
:105840000901A15D09011E6F010101010451090156
:105850000901A25909011F6F010101010551090147
:105860000901A3590901206F010101010651090134
:105870000901A4590901216FE40E1E5D3D0E1F5957
:10588000010E2059000E09012159D8A001D001D0E4
:10589000D7D4010101EE01F0EF2A0C0EEF6401D024
:1058A00001D008D009011E6F020E01010101016F34
:1058B00009011E5158D025D000C14CF978EC6EF08A
:1058C0000101010100690FEC79F0A1C903F1A2C93E
:1058D00004F1A3C905F1A4C906F109011E6F060E62
:1058E00001010101016F09011E5101010283A8D4C8
:1058F00009011E6F020E01010101016F09011E5114
:105900009FD4BEEC2CF0050AD7E0030AF1E098D44E
:10591000010101010151000A01E192D4010A01E1F2
:1059200090D4030A01E1C5D4010A01E13AD5070A7E
:1059300001E190D5010A01E1E2D5030A01E1A8D60F
:10594000010A01E136D70F0A01E165D7010A01E139
:1059500030D7030A01E15FD7010A01E12AD7070A1C
:1059600001E159D700D0090109011D2B000E0901E1
:1059700009011D6501D001D062D4120009012B6F0D
:10598000000E09010901236F09012B510901250EA0
:10599000090109014D6F0901090E09014E6F74ECEF
:1059A00076F0090109012551020AD8A401D001D0DD
:1059B0000FD31C0E090109014E6F000E09014F6F34
:1059C0002AEC78F009012B6F000E09010901266FFE
:1059D00009012B51050E09010901266501D001D0ED
:1059E00001D02CD00901250E090109014D6F0901D3
:1059F000090E09014E6F74EC76F026C92BF92D0EB5
:105A000009012B270201730E09012B25E96EEA6AB1
:105A10000201020EEA22EF50090109012519D8B44A
:105A200001D001D001D014D309010901262B050EA4
:105A300009010901266501D001D0D4D70101010176
:105A400002B501D001D01DD0100E090109014E6F21
:105A5000000E09014F6F2AEC78F0040E09010901CC
:105A60004F6F000E0901506F01010F0E090109016E
:105A70004D6F0101010E09014E6F00EC6DF0010147
:105A80002381F00E090109014E6F000E09014F6FCD
:105A90002AEC78F009012B6F000E09010901226F31
:105AA00009012B510901250E090109014D6F090159
:105AB000090E09014E6F74EC76F00009D8A401D0EC
:105AC00001D009D009012B6F010E09010901226FD4
:105AD00009012B517DD25CD20901250E0901090172
:105AE0004D6F0901090E09014E6F74EC76F0090142
:105AF00009012505D8A401D001D01BD00901230E2E
:105B0000090109014D6F0901090E09014E6F74EC7D
:105B100076F00101010102A501D001D009D00901EF
:105B200009012351020AD8A401D001D001D090D29A
:105B300001D08ED246D20901250E090109014D6F0F
:105B40000901090E09014E6F74EC76F00901090193
:105B50002551040AD8A401D001D0EBD701010101DD
:105B600002A501D001D026D009012B6F000E09013A
:105B70000901266F09012B51030E09010901266550
:105B800001D001D001D015D00901250E090109016C
:105B90004D6F0901090E09014E6F74EC76F0090191
:105BA0000901262B030E09010901266501D001D048
:105BB000EBD714D0040E090109014F6F000E090143
:105BC000506F0101170E090109014D6F0101010E0E
:105BD00009014E6F00EC6DF001012385ABD709017F
:105BE000240E090109014D6F0901090E09014E6FCB
:105BF00074EC76F0030E09010901246501D001D08F
:105C000098D70101010102A501D001D026D00901D8
:105C10002B6F000E09010901266F09012B51030E9C
:105C200009010901266501D001D001D015D0090173
:105C3000250E090109014D6F0901090E09014E6F79
:105C400074EC76F009010901262B030E0901090104
:105C5000266501D001D0EBD714D0040E090109014B
:105C60004F6F000E0901506F0101130E0901090168
:105C70004D6F0101010E09014E6F00EC6DF0010145
:105C8000238300D0040E09010901245F0BD0090110
:105C9000250E090109014D6F0901090E09014E6F19
:105CA00074EC76F009010901240709012429D8A41C
:105CB00001D001D0ECD785D10901240E09010901D9
:105CC0004D6F0901090E09014E6F74EC76F0040E58
:105CD00009010901246101D001D001D0B9D101012C
:105CE000010102B501D001D018D0040E090109014B
:105CF0004F6F000E0901506F01011B0E09010901D0
:105D00004D6F0101010E09014E6F00EC6DF00101B4
:105D10002387040E09010901245F030E090109010B
:105D2000246501D001D01ED00101010102B501D0CE
:105D300001D018D0040E090109014F6F000E0901AE
:105D4000506F01011F0E090109014D6F0101010E84
:105D500009014E6F00EC6DF001012389040E090169
:105D60000901245F0BD00901250E090109014D6FBE
:105D70000901090E09014E6F74EC76F00901090161
:105D8000240709012429D8A401D001D0ECD719D1C6
:105D90000901250E090109014D6F0901090E0901CB
:105DA0004E6F74EC76F0090109012551040AD8A45C
:105DB00001D001D0BED609012A0E090109014D6F9B
:105DC0000901090E09014E6F74EC76F00901290EE4
:105DD000090109014D6F0901090E09014E6F74ECAB
:105DE00076F00901280E090109014D6F0901090E1C
:105DF00009014E6F74EC76F00901270E09010901C3
:105E00004D6F0901090E09014E6F74EC76F092D6C0
:105E100009012B6F010E09010901226F09012B51A4
:105E2000D0D00901250E090109014D6F0901090EA4
:105E300009014E6F74EC76F0090109012551040A3D
:105E4000D8A401D001D075D60101010102A501D06D
:105E500001D026D009012B6F000E09010901266F20
:105E600009012B51030E09010901266501D001D05A
:105E700001D015D00901250E090109014D6F090155
:105E8000090E09014E6F74EC76F009010901262B09
:105E9000030E09010901266501D001D0EBD756D0C8
:105EA00001010A0E090109014D6F0101010E0901ED
:105EB0004E6F74EC76F00101090E090109014D6F76
:105EC0000101010E09014E6F74EC76F00101080E1C
:105ED000090109014D6F0101010E09014E6F74ECBA
:105EE00076F00101070E090109014D6F0101010E54
:105EF00009014E6F74EC76F0010107C12BF9010125
:105F000008C12CF9010109C12DF901010AC12EF9BD
:105F1000060E06D0D89009012E332D332C332B33A7
:105F2000E82EF8D709012B5101010101075F090192
:105F30002C5101010101085B09012D5101010101F1
:105F4000095B09012E51010101010A5BF3D5090129
:105F5000240E090109014D6F0901090E09014E6F57
:105F600074EC76F00BD00901250E090109014D6F83
:105F70000901090E09014E6F74EC76F0090109015F
:105F8000240709012429D8A401D001D0ECD719D0C5
:105F9000090109012551010A01E1CDD5020A01E1FA
:105FA0001ED6050A01E188D6350A01E13AD7060A6C
:105FB00001E192D5030A01E1EBD6C90A01E128D734
:105FC000C6D7090109012251D8B401D001D06AD540
:105FD000090109012351020AD8A401D001D00BD034
:105FE00027C90BF128C90CF129C90DF12AC90EF1F5
:105FF0000101028527D0090109012A51010101018E
:106000000E1914E1090109012951010101010D19BC
:106010000DE1090109012851010101010C1906E1F5
:10602000090109012751010101010B19D8B401D05F
:1060300001D008D009012B6F000E09010901236F5F
:1060400009012B51C1EC78F009010901235104D059
:10605000C1EC78F0000E00D01200020E0901090117
:106060004A25E96E000E090109014B21EA6EEE5046
:10607000ED10D8A401D001D002D0000E32D3090116
:10608000546FFE0E090109014E6F09015451020EB1
:10609000090109014A25E96E000E090109014B2198
:1060A000EA6EEECF54F9EDCF55F94AC9E9FF4BC975
:1060B000EAFFEECF56F9EDCF57F94CC9E9FF4DC9CC
:1060C000EAFFEECF58F9EDCF59F9020E09010901A7
:1060D0004C25E96E000E090109014D21EA6EEECF53
:1060E0005AF9EDCF5BF90901585109015A25090107
:1060F0005C6F0901595109015B2109015D6F0901BB
:10610000565109015C2509015E6F090157510901CA
:106110005D2109015F6F0901545109015E190901EF
:106120000901506F0901555109015F190901516FAA
:106130000901546F000E090109014F6F0901545103
:10614000000E090109014F6501D001D001D0A4D092
:106150004FC960F99AEC68F00001000184510D0A02
:10616000D8A401D001D001D08DD00001000184510C
:10617000040AD8A401D001D01CD0020E09010901E3
:106180004A25E96E000E090109014B21EA6E000162
:1061900010EE87F0E652EE52ED50E518EFCFE8FF33
:1061A000D8B4E718D8A401D001D002D04FC94EF915
:1061B00069D0000100EE87F00901EE52090151514A
:1061C000ED18090150C9E8FFD8B4EF18D8B401D0D0
:1061D00001D001D057D06BEC65F0020102EEB6F0B1
:1061E000020E090109014A25E16E000E09010901AB
:1061F0004B21E26EE652EE52ED50E518EFCFE8FF8C
:10620000D8B4E718D8A401D001D03CD0020102EEE6
:10621000B4F04AC9E1FF4BC9E2FFE652EE52ED503D
:10622000E518EFCFE8FFD8B4E718D8A401D001D023
:1062300029D04CC9E9FF4DC9EAFFEECF54F9EECFA2
:1062400055F9EECF56F9EECF57F902010201BF51D1
:106250000901571911E102010201BE510901561944
:106260000BE102010201BD510901551905E10201CD
:106270000201BC5109015419D8A401D001D002D0A7
:10628000010E2FD2090109014F2B000E090109014E
:106290004F6501D001D05CD7090109014E51FE0ABA
:1062A000D8B401D001D048D04EC960F99AEC68F05A
:1062B0006BEC65F0090109014E51FE0AD8B401D01A
:1062C00001D03AD050C987F051C988F00A0E0901AF
:1062D0000901B06F000E0901B16F4CC9AEF94DC98B
:1062E000AFF90201BC0E09010901AC6F0201020EF7
:1062F0000901AD6FF0EC74F04AC9E9FF4BC9EAFF40
:106300000201EECFB4F20201EDCFB5F2020E0901A7
:1063100009014A25E96E000E090109014B21EA6EC7
:106320000201EECFB6F20201EDCFB7F26EC0B2F2CB
:106330006FC0B3F2010ED5D10D0E090109014A2536
:10634000E96E000E090109014B21EA6EEF500901C7
:10635000546F090154B301D001D002D0000EC1D155
:106360000801080139513811D8B401D001D002D048
:10637000000EB7D1000E09010901526F000E09018C
:10638000536F030E09010901525D000E09015359B3
:10639000D8A001D001D001D0C8D0090109015251C3
:1063A000140DF3CF54F9100E090154270801000E03
:1063B00009015425E96EEA6A0801080EEA22EE5046
:1063C000ED10D8A401D001D001D0AFD0020E090148
:1063D00009014A25E96E000E090109014B21EA6E07
:1063E000090109015251140DF3CF54F9100E09019E
:1063F00054270801000E09015425E16EE26A0801E4
:10640000080EE222E652EE52ED50E518EFCFE8FF1B
:10641000D8B4E718D8B401D001D001D077D04AC998
:10642000E9FF4BC9EAFF090109015251140DF3CFED
:1064300054F90A0E090154270801000E09015425D8
:10644000E16EE26A0801080EE222E652EE52ED50D9
:10645000E518EFCFE8FFD8B4E718D8B401D001D0E1
:1064600001D054D04CC9E9FF4DC9EAFFEECF54F931
:10647000EECF55F9EECF56F9EECF57F909010901E4
:106480005251140D0801000EF324E96EEA6A080166
:10649000080EEA22EECF58F9EECF59F9EECF5AF9AD
:1064A000EECF5BF90901575109015B190EE10901B2
:1064B000565109015A1909E10901555109015919A2
:1064C00004E10901545109015819D8B401D001D08F
:1064D00001D01CD002EC78F0090109015251140DD1
:1064E000F3CF54F9120E090154270801000E0901D7
:1064F0005425E96EEA6A0801080EEA220901A1C9D9
:10650000EEFF0901A2C9EDFF000EEBD00901090160
:10651000524B532B030E09010901525D000E090174
:106520005359D8A001D001D038D70901546F000EBB
:10653000090109014F6F09015451000E09010901B8
:106540004F6501D001D001D0CAD04FC960F99AEC93
:1065500068F00001000185B701D001D001D0B5D0AD
:106560006BEC65F0020E090109014A25E96E000E87
:10657000090109014B21EA6E020112EEB6F0E65262
:10658000EE52ED50E518EFCFE8FFD8B4E718D8B4D5
:1065900001D001D001D099D00A0E09010901B06FD4
:1065A000000E0901B16F4CC9AEF94DC9AFF909012F
:1065B00009015251140D0801000EF32409010901CB
:1065C000AC6F0901AD6B0801080E0901AD23F0ECB9
:1065D00074F04AC9E9FF4BC9EAFF090109015251A8
:1065E000140DF3CF54F90A0E090154270801000EC7
:1065F00009015425E16EE26A0801080EE222EECF9D
:10660000E6FFEDCFE5FF040E090109014A25E96E19
:10661000000E090109014B21EA6E090109015251DD
:10662000140DF3CF54F90C0E090154270801000E84
:1066300009015425E16EE26A0801080EE222EECF5C
:10664000E6FFEECFE6FFEECFE6FFEDCFE5FFE5524A
:10665000E552020E090109014A25E96E000E090101
:1066600009014B21EA6E090109015251140DF3CFC2
:1066700054F9100E090154270801000E0901542590
:10668000E16EE26A0801080EE222EECFE6FFEDCFEE
:10669000E5FF02EC78F0090109015251140DF3CF26
:1066A00054F9120E090154270801000E090154255E
:1066B000E96EEA6A0801080EEA220901A1C9EEFFA3
:1066C0000901A2C9EDFF000E0CD0090109014F2BF1
:1066D000000E090109014F6501D001D036D7000E27
:1066E00000D012000901226F000E090109011D6F7F
:1066F00009012251040E090109011D6501D001D0D3
:1067000001D081D2090109011D51170DF3CF22F9E2
:106710000E0E090122270201000E09012225E96E51
:10672000EA6A0201020EEA22EF50050AD8B401D04B
:1067300001D017D0090109011D51170DF3CF22F91E
:106740000E0E090122270201000E09012225E96E21
:10675000EA6A0201020EEA22040EEF6201D001D0C1
:1067600001D047D221D225EC79F00009D8B401D06C
:1067700001D067D0090109011D51170DF3CF22F98E
:106780000E0E090122270201000E09012225E96EE1
:10679000EA6A0201020EEA22000EEF6E0901090107
:1067A0001D51170DF3CF22F9140E09012227020102
:1067B000000E09012225E96EEA6A0201020EEA22B0
:1067C000EF500901236F090123A101D001D01DD091
:1067D0000901226F010E090109012F6F09012251E0
:1067E000090109011D51170D0201000EF324E96E84
:1067F000EA6A0201020EEA220901EECF2DF909012F
:10680000EDCF2EF908EC73F01CD00901226F010EB8
:10681000090109012F6F09012251090109011D51C7
:10682000170D0201000EF324E96EEA6A0201020E5E
:10683000EA220901EECF2DF90901EDCF2EF9D3ECB3
:1068400072F0D7D109011E0E090109012D6F09014E
:10685000090E09012E6FBDEC1DF00009D8B401D05E
:1068600001D0EFD791EC77F00009D8B401D001D076
:106870005DD0090109011D51170D0201000EF3241D
:10688000E96EEA6A0201020EEA2209011EC9EEFF60
:1068900009011FC9EEFF090120C9EEFF090121C945
:1068A000EEFF090109011D51170DF3CF22F90E0E5C
:1068B000090122270201000E09012225E96EEA6A78
:1068C0000201020EEA22020EEF6E090109011D51BA
:1068D000170DF3CF22F9130E090122270201000E32
:1068E00009012225E96EEA6A0201020EEA22000E7F
:1068F000EF6E090109011D51170DF3CF22F90F0E9B
:10690000090122270201000E09012225E96EEA6A27
:106910000201020EEA22270EEE6E000EEE6E000E4F
:10692000EE6E000EED6EED52ED5214D0090109012C
:106930001D51170DF3CF22F90E0E09012227020176
